{
  "_format": "hh-sol-artifact-1",
  "contractName": "SampleERC721",
  "sourceName": "contracts/Factory.sol",
  "abi": [
    {
      "anonymous": false,
      "inputs": [
        {
          "indexed": true,
          "internalType": "address",
          "name": "owner",
          "type": "address"
        },
        {
          "indexed": true,
          "internalType": "address",
          "name": "approved",
          "type": "address"
        },
        {
          "indexed": true,
          "internalType": "uint256",
          "name": "tokenId",
          "type": "uint256"
        }
      ],
      "name": "Approval",
      "type": "event"
    },
    {
      "anonymous": false,
      "inputs": [
        {
          "indexed": true,
          "internalType": "address",
          "name": "owner",
          "type": "address"
        },
        {
          "indexed": true,
          "internalType": "address",
          "name": "operator",
          "type": "address"
        },
        {
          "indexed": false,
          "internalType": "bool",
          "name": "approved",
          "type": "bool"
        }
      ],
      "name": "ApprovalForAll",
      "type": "event"
    },
    {
      "anonymous": false,
      "inputs": [
        {
          "indexed": false,
          "internalType": "uint8",
          "name": "version",
          "type": "uint8"
        }
      ],
      "name": "Initialized",
      "type": "event"
    },
    {
      "anonymous": false,
      "inputs": [
        {
          "indexed": true,
          "internalType": "address",
          "name": "previousOwner",
          "type": "address"
        },
        {
          "indexed": true,
          "internalType": "address",
          "name": "newOwner",
          "type": "address"
        }
      ],
      "name": "OwnershipTransferred",
      "type": "event"
    },
    {
      "anonymous": false,
      "inputs": [
        {
          "indexed": true,
          "internalType": "address",
          "name": "from",
          "type": "address"
        },
        {
          "indexed": true,
          "internalType": "address",
          "name": "to",
          "type": "address"
        },
        {
          "indexed": true,
          "internalType": "uint256",
          "name": "tokenId",
          "type": "uint256"
        }
      ],
      "name": "Transfer",
      "type": "event"
    },
    {
      "inputs": [],
      "name": "MESSAGE_HASH",
      "outputs": [
        {
          "internalType": "bytes32",
          "name": "",
          "type": "bytes32"
        }
      ],
      "stateMutability": "view",
      "type": "function"
    },
    {
      "inputs": [
        {
          "internalType": "uint256",
          "name": "tokenId",
          "type": "uint256"
        },
        {
          "internalType": "address",
          "name": "account",
          "type": "address"
        }
      ],
      "name": "addToWhitelist",
      "outputs": [],
      "stateMutability": "nonpayable",
      "type": "function"
    },
    {
      "inputs": [
        {
          "internalType": "uint256",
          "name": "tokenId",
          "type": "uint256"
        },
        {
          "components": [
            {
              "internalType": "string",
              "name": "key",
              "type": "string"
            },
            {
              "internalType": "string",
              "name": "value",
              "type": "string"
            }
          ],
          "internalType": "struct SampleERC721.VerificationItem[]",
          "name": "items",
          "type": "tuple[]"
        }
      ],
      "name": "addVerificationData",
      "outputs": [],
      "stateMutability": "nonpayable",
      "type": "function"
    },
    {
      "inputs": [
        {
          "internalType": "address",
          "name": "to",
          "type": "address"
        },
        {
          "internalType": "uint256",
          "name": "tokenId",
          "type": "uint256"
        }
      ],
      "name": "approve",
      "outputs": [],
      "stateMutability": "nonpayable",
      "type": "function"
    },
    {
      "inputs": [
        {
          "internalType": "address",
          "name": "owner",
          "type": "address"
        }
      ],
      "name": "balanceOf",
      "outputs": [
        {
          "internalType": "uint256",
          "name": "",
          "type": "uint256"
        }
      ],
      "stateMutability": "view",
      "type": "function"
    },
    {
      "inputs": [
        {
          "internalType": "uint256",
          "name": "tokenId",
          "type": "uint256"
        }
      ],
      "name": "getApproved",
      "outputs": [
        {
          "internalType": "address",
          "name": "",
          "type": "address"
        }
      ],
      "stateMutability": "view",
      "type": "function"
    },
    {
      "inputs": [
        {
          "internalType": "uint256",
          "name": "tokenId",
          "type": "uint256"
        },
        {
          "internalType": "bytes",
          "name": "signature",
          "type": "bytes"
        }
      ],
      "name": "getVerificationData",
      "outputs": [
        {
          "components": [
            {
              "internalType": "address",
              "name": "verification_from",
              "type": "address"
            },
            {
              "components": [
                {
                  "internalType": "string",
                  "name": "key",
                  "type": "string"
                },
                {
                  "internalType": "string",
                  "name": "value",
                  "type": "string"
                }
              ],
              "internalType": "struct SampleERC721.VerificationItem[]",
              "name": "verification_data",
              "type": "tuple[]"
            }
          ],
          "internalType": "struct SampleERC721.VerificationData[]",
          "name": "",
          "type": "tuple[]"
        }
      ],
      "stateMutability": "view",
      "type": "function"
    },
    {
      "inputs": [
        {
          "internalType": "uint256",
          "name": "tokenId",
          "type": "uint256"
        }
      ],
      "name": "getVerificationDataAsOwner",
      "outputs": [
        {
          "components": [
            {
              "internalType": "address",
              "name": "verification_from",
              "type": "address"
            },
            {
              "components": [
                {
                  "internalType": "string",
                  "name": "key",
                  "type": "string"
                },
                {
                  "internalType": "string",
                  "name": "value",
                  "type": "string"
                }
              ],
              "internalType": "struct SampleERC721.VerificationItem[]",
              "name": "verification_data",
              "type": "tuple[]"
            }
          ],
          "internalType": "struct SampleERC721.VerificationData[]",
          "name": "",
          "type": "tuple[]"
        }
      ],
      "stateMutability": "view",
      "type": "function"
    },
    {
      "inputs": [
        {
          "internalType": "string",
          "name": "name",
          "type": "string"
        },
        {
          "internalType": "string",
          "name": "symbol",
          "type": "string"
        },
        {
          "internalType": "string",
          "name": "baseTokenURI",
          "type": "string"
        },
        {
          "internalType": "address",
          "name": "owner",
          "type": "address"
        }
      ],
      "name": "initialize",
      "outputs": [],
      "stateMutability": "nonpayable",
      "type": "function"
    },
    {
      "inputs": [
        {
          "internalType": "address",
          "name": "owner",
          "type": "address"
        },
        {
          "internalType": "address",
          "name": "operator",
          "type": "address"
        }
      ],
      "name": "isApprovedForAll",
      "outputs": [
        {
          "internalType": "bool",
          "name": "",
          "type": "bool"
        }
      ],
      "stateMutability": "view",
      "type": "function"
    },
    {
      "inputs": [
        {
          "internalType": "address",
          "name": "to",
          "type": "address"
        },
        {
          "internalType": "uint256",
          "name": "tokenId",
          "type": "uint256"
        }
      ],
      "name": "mint",
      "outputs": [],
      "stateMutability": "nonpayable",
      "type": "function"
    },
    {
      "inputs": [],
      "name": "name",
      "outputs": [
        {
          "internalType": "string",
          "name": "",
          "type": "string"
        }
      ],
      "stateMutability": "view",
      "type": "function"
    },
    {
      "inputs": [],
      "name": "owner",
      "outputs": [
        {
          "internalType": "address",
          "name": "",
          "type": "address"
        }
      ],
      "stateMutability": "view",
      "type": "function"
    },
    {
      "inputs": [
        {
          "internalType": "uint256",
          "name": "tokenId",
          "type": "uint256"
        }
      ],
      "name": "ownerOf",
      "outputs": [
        {
          "internalType": "address",
          "name": "",
          "type": "address"
        }
      ],
      "stateMutability": "view",
      "type": "function"
    },
    {
      "inputs": [
        {
          "internalType": "uint256",
          "name": "tokenId",
          "type": "uint256"
        },
        {
          "internalType": "address",
          "name": "account",
          "type": "address"
        }
      ],
      "name": "removeFromWhitelist",
      "outputs": [],
      "stateMutability": "nonpayable",
      "type": "function"
    },
    {
      "inputs": [],
      "name": "renounceOwnership",
      "outputs": [],
      "stateMutability": "nonpayable",
      "type": "function"
    },
    {
      "inputs": [
        {
          "internalType": "address",
          "name": "from",
          "type": "address"
        },
        {
          "internalType": "address",
          "name": "to",
          "type": "address"
        },
        {
          "internalType": "uint256",
          "name": "tokenId",
          "type": "uint256"
        }
      ],
      "name": "safeTransferFrom",
      "outputs": [],
      "stateMutability": "nonpayable",
      "type": "function"
    },
    {
      "inputs": [
        {
          "internalType": "address",
          "name": "from",
          "type": "address"
        },
        {
          "internalType": "address",
          "name": "to",
          "type": "address"
        },
        {
          "internalType": "uint256",
          "name": "tokenId",
          "type": "uint256"
        },
        {
          "internalType": "bytes",
          "name": "data",
          "type": "bytes"
        }
      ],
      "name": "safeTransferFrom",
      "outputs": [],
      "stateMutability": "nonpayable",
      "type": "function"
    },
    {
      "inputs": [
        {
          "internalType": "address",
          "name": "operator",
          "type": "address"
        },
        {
          "internalType": "bool",
          "name": "approved",
          "type": "bool"
        }
      ],
      "name": "setApprovalForAll",
      "outputs": [],
      "stateMutability": "nonpayable",
      "type": "function"
    },
    {
      "inputs": [
        {
          "internalType": "bytes4",
          "name": "interfaceId",
          "type": "bytes4"
        }
      ],
      "name": "supportsInterface",
      "outputs": [
        {
          "internalType": "bool",
          "name": "",
          "type": "bool"
        }
      ],
      "stateMutability": "view",
      "type": "function"
    },
    {
      "inputs": [],
      "name": "symbol",
      "outputs": [
        {
          "internalType": "string",
          "name": "",
          "type": "string"
        }
      ],
      "stateMutability": "view",
      "type": "function"
    },
    {
      "inputs": [
        {
          "internalType": "uint256",
          "name": "tokenId",
          "type": "uint256"
        }
      ],
      "name": "tokenURI",
      "outputs": [
        {
          "internalType": "string",
          "name": "",
          "type": "string"
        }
      ],
      "stateMutability": "view",
      "type": "function"
    },
    {
      "inputs": [
        {
          "internalType": "address",
          "name": "from",
          "type": "address"
        },
        {
          "internalType": "address",
          "name": "to",
          "type": "address"
        },
        {
          "internalType": "uint256",
          "name": "tokenId",
          "type": "uint256"
        }
      ],
      "name": "transferFrom",
      "outputs": [],
      "stateMutability": "nonpayable",
      "type": "function"
    },
    {
      "inputs": [
        {
          "internalType": "address",
          "name": "newOwner",
          "type": "address"
        }
      ],
      "name": "transferOwnership",
      "outputs": [],
      "stateMutability": "nonpayable",
      "type": "function"
    }
  ],
  "bytecode": "0x608060405234801561001057600080fd5b506148ae806100206000396000f3fe608060405234801561001057600080fd5b50600436106101585760003560e01c8063715018a6116100c3578063b28ccdd21161007c578063b28ccdd2146103af578063b88d4fde146103df578063c87b56dd146103fb578063e985e9c51461042b578063f2fde38b1461045b578063fea3e6131461047757610158565b8063715018a6146102ff5780638da5cb5b1461030957806395d89b4114610327578063a195f02014610345578063a22cb46514610363578063a69830391461037f57610158565b806340c10f191161011557806340c10f191461022f57806342842e0e1461024b57806351817cb7146102675780635c6d8da1146102835780636352211e1461029f57806370a08231146102cf57610158565b806301ffc9a71461015d57806306fdde031461018d578063081812fc146101ab578063095ea7b3146101db57806323b872dd146101f75780632d78546114610213575b600080fd5b61017760048036038101906101729190612a76565b610493565b6040516101849190612abe565b60405180910390f35b610195610575565b6040516101a29190612b69565b60405180910390f35b6101c560048036038101906101c09190612bc1565b610607565b6040516101d29190612c2f565b60405180910390f35b6101f560048036038101906101f09190612c76565b61064d565b005b610211600480360381019061020c9190612cb6565b610764565b005b61022d60048036038101906102289190612d09565b6107c4565b005b61024960048036038101906102449190612c76565b610881565b005b61026560048036038101906102609190612cb6565b610897565b005b610281600480360381019061027c9190612dae565b6108b7565b005b61029d60048036038101906102989190612f3e565b610a59565b005b6102b960048036038101906102b49190612bc1565b610bbe565b6040516102c69190612c2f565b60405180910390f35b6102e960048036038101906102e49190612ff9565b610c44565b6040516102f69190613035565b60405180910390f35b610307610cfb565b005b610311610d0f565b60405161031e9190612c2f565b60405180910390f35b61032f610d39565b60405161033c9190612b69565b60405180910390f35b61034d610dcb565b60405161035a9190613069565b60405180910390f35b61037d600480360381019061037891906130b0565b610df3565b005b61039960048036038101906103949190612bc1565b610e09565b6040516103a6919061334e565b60405180910390f35b6103c960048036038101906103c491906133c6565b6110a4565b6040516103d6919061334e565b60405180910390f35b6103f960048036038101906103f491906134c7565b61140e565b005b61041560048036038101906104109190612bc1565b611470565b6040516104229190612b69565b60405180910390f35b6104456004803603810190610440919061354a565b6114d8565b6040516104529190612abe565b60405180910390f35b61047560048036038101906104709190612ff9565b61156c565b005b610491600480360381019061048c9190612d09565b6115ef565b005b60007f80ac58cd000000000000000000000000000000000000000000000000000000007bffffffffffffffffffffffffffffffffffffffffffffffffffffffff1916827bffffffffffffffffffffffffffffffffffffffffffffffffffffffff1916148061055e57507f5b5e139f000000000000000000000000000000000000000000000000000000007bffffffffffffffffffffffffffffffffffffffffffffffffffffffff1916827bffffffffffffffffffffffffffffffffffffffffffffffffffffffff1916145b8061056e575061056d826116ac565b5b9050919050565b606060658054610584906135b9565b80601f01602080910402602001604051908101604052809291908181526020018280546105b0906135b9565b80156105fd5780601f106105d2576101008083540402835291602001916105fd565b820191906000526020600020905b8154815290600101906020018083116105e057829003601f168201915b5050505050905090565b600061061282611716565b6069600083815260200190815260200160002060009054906101000a900473ffffffffffffffffffffffffffffffffffffffff169050919050565b600061065882610bbe565b90508073ffffffffffffffffffffffffffffffffffffffff168373ffffffffffffffffffffffffffffffffffffffff16036106c8576040517f08c379a00000000000000000000000000000000000000000000000000000000081526004016106bf9061365c565b60405180910390fd5b8073ffffffffffffffffffffffffffffffffffffffff166106e7611761565b73ffffffffffffffffffffffffffffffffffffffff161480610716575061071581610710611761565b6114d8565b5b610755576040517f08c379a000000000000000000000000000000000000000000000000000000000815260040161074c906136ee565b60405180910390fd5b61075f8383611769565b505050565b61077561076f611761565b82611822565b6107b4576040517f08c379a00000000000000000000000000000000000000000000000000000000081526004016107ab90613780565b60405180910390fd5b6107bf8383836118b7565b505050565b6107d56107cf611761565b83611822565b610814576040517f08c379a000000000000000000000000000000000000000000000000000000000815260040161080b906137ec565b60405180910390fd5b600160cb600084815260200190815260200160002060008373ffffffffffffffffffffffffffffffffffffffff1673ffffffffffffffffffffffffffffffffffffffff16815260200190815260200160002060006101000a81548160ff0219169083151502179055505050565b610889611bb0565b6108938282611c2e565b5050565b6108b28383836040518060200160405280600081525061140e565b505050565b6108c083611e4b565b6108ff576040517f08c379a00000000000000000000000000000000000000000000000000000000081526004016108f690613858565b60405180910390fd5b60ca600084815260200190815260200160002060018160018154018082558091505003906000526020600020905050600060ca6000858152602001908152602001600020600160ca60008781526020019081526020016000208054905061096691906138a7565b81548110610977576109766138db565b5b9060005260206000209060020201905061098f611761565b8160000160006101000a81548173ffffffffffffffffffffffffffffffffffffffff021916908373ffffffffffffffffffffffffffffffffffffffff16021790555060005b83839050811015610a5257816001018484838181106109f6576109f56138db565b5b9050602002810190610a089190613919565b90806001815401808255809150506001900390600052602060002090600202016000909190919091508181610a3d9190613c81565b50508080610a4a90613c8f565b9150506109d4565b5050505050565b60008060019054906101000a900460ff16159050808015610a8a5750600160008054906101000a900460ff1660ff16105b80610ab75750610a9930611e8c565b158015610ab65750600160008054906101000a900460ff1660ff16145b5b610af6576040517f08c379a0000000000000000000000000000000000000000000000000000000008152600401610aed90613d49565b60405180910390fd5b60016000806101000a81548160ff021916908360ff1602179055508015610b33576001600060016101000a81548160ff0219169083151502179055505b610b3d8585611eaf565b610b45611f0c565b8260c99081610b549190613d69565b50610b5e8261156c565b8015610bb75760008060016101000a81548160ff0219169083151502179055507f7f26b83ff96e1f2b6a682f133852f6798a09c465da95921460cefb38474024986001604051610bae9190613e83565b60405180910390a15b5050505050565b600080610bca83611f65565b9050600073ffffffffffffffffffffffffffffffffffffffff168173ffffffffffffffffffffffffffffffffffffffff1603610c3b576040517f08c379a0000000000000000000000000000000000000000000000000000000008152600401610c3290613eea565b60405180910390fd5b80915050919050565b60008073ffffffffffffffffffffffffffffffffffffffff168273ffffffffffffffffffffffffffffffffffffffff1603610cb4576040517f08c379a0000000000000000000000000000000000000000000000000000000008152600401610cab90613f7c565b60405180910390fd5b606860008373ffffffffffffffffffffffffffffffffffffffff1673ffffffffffffffffffffffffffffffffffffffff168152602001908152602001600020549050919050565b610d03611bb0565b610d0d6000611fa2565b565b6000609760009054906101000a900473ffffffffffffffffffffffffffffffffffffffff16905090565b606060668054610d48906135b9565b80601f0160208091040260200160405190810160405280929190818152602001828054610d74906135b9565b8015610dc15780601f10610d9657610100808354040283529160200191610dc1565b820191906000526020600020905b815481529060010190602001808311610da457829003601f168201915b5050505050905090565b604051602001610dda90614019565b6040516020818303038152906040528051906020012081565b610e05610dfe611761565b8383612068565b5050565b6060610e1c610e16611761565b83611822565b610e5b576040517f08c379a0000000000000000000000000000000000000000000000000000000008152600401610e52906137ec565b60405180910390fd5b60ca6000838152602001908152602001600020805480602002602001604051908101604052809291908181526020016000905b8282101561109957838290600052602060002090600202016040518060400160405290816000820160009054906101000a900473ffffffffffffffffffffffffffffffffffffffff1673ffffffffffffffffffffffffffffffffffffffff1673ffffffffffffffffffffffffffffffffffffffff16815260200160018201805480602002602001604051908101604052809291908181526020016000905b828210156110825783829060005260206000209060020201604051806040016040529081600082018054610f5f906135b9565b80601f0160208091040260200160405190810160405280929190818152602001828054610f8b906135b9565b8015610fd85780601f10610fad57610100808354040283529160200191610fd8565b820191906000526020600020905b815481529060010190602001808311610fbb57829003601f168201915b50505050508152602001600182018054610ff1906135b9565b80601f016020809104026020016040519081016040528092919081815260200182805461101d906135b9565b801561106a5780601f1061103f5761010080835404028352916020019161106a565b820191906000526020600020905b81548152906001019060200180831161104d57829003601f168201915b50505050508152505081526020019060010190610f2c565b505050508152505081526020019060010190610e8e565b505050509050919050565b6060600061112384848080601f016020809104026020016040519081016040528093929190818152602001838380828437600081840152601f19601f820116905080830192505050505050506040516020016110ff90614019565b604051602081830303815290604052805190602001206121d490919063ffffffff16565b905060cb600086815260200190815260200160002060008273ffffffffffffffffffffffffffffffffffffffff1673ffffffffffffffffffffffffffffffffffffffff16815260200190815260200160002060009054906101000a900460ff166111c2576040517f08c379a00000000000000000000000000000000000000000000000000000000081526004016111b99061407a565b60405180910390fd5b60ca6000868152602001908152602001600020805480602002602001604051908101604052809291908181526020016000905b8282101561140057838290600052602060002090600202016040518060400160405290816000820160009054906101000a900473ffffffffffffffffffffffffffffffffffffffff1673ffffffffffffffffffffffffffffffffffffffff1673ffffffffffffffffffffffffffffffffffffffff16815260200160018201805480602002602001604051908101604052809291908181526020016000905b828210156113e957838290600052602060002090600202016040518060400160405290816000820180546112c6906135b9565b80601f01602080910402602001604051908101604052809291908181526020018280546112f2906135b9565b801561133f5780601f106113145761010080835404028352916020019161133f565b820191906000526020600020905b81548152906001019060200180831161132257829003601f168201915b50505050508152602001600182018054611358906135b9565b80601f0160208091040260200160405190810160405280929190818152602001828054611384906135b9565b80156113d15780601f106113a6576101008083540402835291602001916113d1565b820191906000526020600020905b8154815290600101906020018083116113b457829003601f168201915b50505050508152505081526020019060010190611293565b5050505081525050815260200190600101906111f5565b505050509150509392505050565b61141f611419611761565b83611822565b61145e576040517f08c379a000000000000000000000000000000000000000000000000000000000815260040161145590613780565b60405180910390fd5b61146a848484846121fb565b50505050565b606061147b82611716565b6000611485612257565b905060008151116114a557604051806020016040528060008152506114d0565b806114af846122e9565b6040516020016114c09291906140cb565b6040516020818303038152906040525b915050919050565b6000606a60008473ffffffffffffffffffffffffffffffffffffffff1673ffffffffffffffffffffffffffffffffffffffff16815260200190815260200160002060008373ffffffffffffffffffffffffffffffffffffffff1673ffffffffffffffffffffffffffffffffffffffff16815260200190815260200160002060009054906101000a900460ff16905092915050565b611574611bb0565b600073ffffffffffffffffffffffffffffffffffffffff168173ffffffffffffffffffffffffffffffffffffffff16036115e3576040517f08c379a00000000000000000000000000000000000000000000000000000000081526004016115da90614161565b60405180910390fd5b6115ec81611fa2565b50565b6116006115fa611761565b83611822565b61163f576040517f08c379a0000000000000000000000000000000000000000000000000000000008152600401611636906137ec565b60405180910390fd5b600060cb600084815260200190815260200160002060008373ffffffffffffffffffffffffffffffffffffffff1673ffffffffffffffffffffffffffffffffffffffff16815260200190815260200160002060006101000a81548160ff0219169083151502179055505050565b60007f01ffc9a7000000000000000000000000000000000000000000000000000000007bffffffffffffffffffffffffffffffffffffffffffffffffffffffff1916827bffffffffffffffffffffffffffffffffffffffffffffffffffffffff1916149050919050565b61171f81611e4b565b61175e576040517f08c379a000000000000000000000000000000000000000000000000000000000815260040161175590613eea565b60405180910390fd5b50565b600033905090565b816069600083815260200190815260200160002060006101000a81548173ffffffffffffffffffffffffffffffffffffffff021916908373ffffffffffffffffffffffffffffffffffffffff160217905550808273ffffffffffffffffffffffffffffffffffffffff166117dc83610bbe565b73ffffffffffffffffffffffffffffffffffffffff167f8c5be1e5ebec7d5bd14f71427d1e84f3dd0314c0f7b2291e5b200ac8c7c3b92560405160405180910390a45050565b60008061182e83610bbe565b90508073ffffffffffffffffffffffffffffffffffffffff168473ffffffffffffffffffffffffffffffffffffffff161480611870575061186f81856114d8565b5b806118ae57508373ffffffffffffffffffffffffffffffffffffffff1661189684610607565b73ffffffffffffffffffffffffffffffffffffffff16145b91505092915050565b8273ffffffffffffffffffffffffffffffffffffffff166118d782610bbe565b73ffffffffffffffffffffffffffffffffffffffff161461192d576040517f08c379a0000000000000000000000000000000000000000000000000000000008152600401611924906141f3565b60405180910390fd5b600073ffffffffffffffffffffffffffffffffffffffff168273ffffffffffffffffffffffffffffffffffffffff160361199c576040517f08c379a000000000000000000000000000000000000000000000000000000000815260040161199390614285565b60405180910390fd5b6119a983838360016123b7565b8273ffffffffffffffffffffffffffffffffffffffff166119c982610bbe565b73ffffffffffffffffffffffffffffffffffffffff1614611a1f576040517f08c379a0000000000000000000000000000000000000000000000000000000008152600401611a16906141f3565b60405180910390fd5b6069600082815260200190815260200160002060006101000a81549073ffffffffffffffffffffffffffffffffffffffff02191690556001606860008573ffffffffffffffffffffffffffffffffffffffff1673ffffffffffffffffffffffffffffffffffffffff168152602001908152602001600020600082825403925050819055506001606860008473ffffffffffffffffffffffffffffffffffffffff1673ffffffffffffffffffffffffffffffffffffffff16815260200190815260200160002060008282540192505081905550816067600083815260200190815260200160002060006101000a81548173ffffffffffffffffffffffffffffffffffffffff021916908373ffffffffffffffffffffffffffffffffffffffff160217905550808273ffffffffffffffffffffffffffffffffffffffff168473ffffffffffffffffffffffffffffffffffffffff167fddf252ad1be2c89b69c2b068fc378daa952ba7f163c4a11628f55a4df523b3ef60405160405180910390a4611bab83838360016123bd565b505050565b611bb8611761565b73ffffffffffffffffffffffffffffffffffffffff16611bd6610d0f565b73ffffffffffffffffffffffffffffffffffffffff1614611c2c576040517f08c379a0000000000000000000000000000000000000000000000000000000008152600401611c23906142f1565b60405180910390fd5b565b600073ffffffffffffffffffffffffffffffffffffffff168273ffffffffffffffffffffffffffffffffffffffff1603611c9d576040517f08c379a0000000000000000000000000000000000000000000000000000000008152600401611c949061435d565b60405180910390fd5b611ca681611e4b565b15611ce6576040517f08c379a0000000000000000000000000000000000000000000000000000000008152600401611cdd906143c9565b60405180910390fd5b611cf46000838360016123b7565b611cfd81611e4b565b15611d3d576040517f08c379a0000000000000000000000000000000000000000000000000000000008152600401611d34906143c9565b60405180910390fd5b6001606860008473ffffffffffffffffffffffffffffffffffffffff1673ffffffffffffffffffffffffffffffffffffffff16815260200190815260200160002060008282540192505081905550816067600083815260200190815260200160002060006101000a81548173ffffffffffffffffffffffffffffffffffffffff021916908373ffffffffffffffffffffffffffffffffffffffff160217905550808273ffffffffffffffffffffffffffffffffffffffff16600073ffffffffffffffffffffffffffffffffffffffff167fddf252ad1be2c89b69c2b068fc378daa952ba7f163c4a11628f55a4df523b3ef60405160405180910390a4611e476000838360016123bd565b5050565b60008073ffffffffffffffffffffffffffffffffffffffff16611e6d83611f65565b73ffffffffffffffffffffffffffffffffffffffff1614159050919050565b6000808273ffffffffffffffffffffffffffffffffffffffff163b119050919050565b600060019054906101000a900460ff16611efe576040517f08c379a0000000000000000000000000000000000000000000000000000000008152600401611ef59061445b565b60405180910390fd5b611f0882826123c3565b5050565b600060019054906101000a900460ff16611f5b576040517f08c379a0000000000000000000000000000000000000000000000000000000008152600401611f529061445b565b60405180910390fd5b611f63612436565b565b60006067600083815260200190815260200160002060009054906101000a900473ffffffffffffffffffffffffffffffffffffffff169050919050565b6000609760009054906101000a900473ffffffffffffffffffffffffffffffffffffffff16905081609760006101000a81548173ffffffffffffffffffffffffffffffffffffffff021916908373ffffffffffffffffffffffffffffffffffffffff1602179055508173ffffffffffffffffffffffffffffffffffffffff168173ffffffffffffffffffffffffffffffffffffffff167f8be0079c531659141344cd1fd0a4f28419497f9722a3daafe3b4186f6b6457e060405160405180910390a35050565b8173ffffffffffffffffffffffffffffffffffffffff168373ffffffffffffffffffffffffffffffffffffffff16036120d6576040517f08c379a00000000000000000000000000000000000000000000000000000000081526004016120cd906144c7565b60405180910390fd5b80606a60008573ffffffffffffffffffffffffffffffffffffffff1673ffffffffffffffffffffffffffffffffffffffff16815260200190815260200160002060008473ffffffffffffffffffffffffffffffffffffffff1673ffffffffffffffffffffffffffffffffffffffff16815260200190815260200160002060006101000a81548160ff0219169083151502179055508173ffffffffffffffffffffffffffffffffffffffff168373ffffffffffffffffffffffffffffffffffffffff167f17307eab39ab6107e8899845ad3d59bd9653f200f220920489ca2b5937696c31836040516121c79190612abe565b60405180910390a3505050565b60008060006121e38585612497565b915091506121f0816124e8565b819250505092915050565b6122068484846118b7565b6122128484848461264e565b612251576040517f08c379a000000000000000000000000000000000000000000000000000000000815260040161224890614559565b60405180910390fd5b50505050565b606060c98054612266906135b9565b80601f0160208091040260200160405190810160405280929190818152602001828054612292906135b9565b80156122df5780601f106122b4576101008083540402835291602001916122df565b820191906000526020600020905b8154815290600101906020018083116122c257829003601f168201915b5050505050905090565b6060600060016122f8846127d5565b01905060008167ffffffffffffffff81111561231757612316612e13565b5b6040519080825280601f01601f1916602001820160405280156123495781602001600182028036833780820191505090505b509050600082602001820190505b6001156123ac578080600190039150507f3031323334353637383961626364656600000000000000000000000000000000600a86061a8153600a85816123a05761239f614579565b5b04945060008503612357575b819350505050919050565b50505050565b50505050565b600060019054906101000a900460ff16612412576040517f08c379a00000000000000000000000000000000000000000000000000000000081526004016124099061445b565b60405180910390fd5b81606590816124219190613d69565b5080606690816124319190613d69565b505050565b600060019054906101000a900460ff16612485576040517f08c379a000000000000000000000000000000000000000000000000000000000815260040161247c9061445b565b60405180910390fd5b612495612490611761565b611fa2565b565b60008060418351036124d85760008060006020860151925060408601519150606086015160001a90506124cc87828585612928565b945094505050506124e1565b60006002915091505b9250929050565b600060048111156124fc576124fb6145a8565b5b81600481111561250f5761250e6145a8565b5b031561264b5760016004811115612529576125286145a8565b5b81600481111561253c5761253b6145a8565b5b0361257c576040517f08c379a000000000000000000000000000000000000000000000000000000000815260040161257390614623565b60405180910390fd5b600260048111156125905761258f6145a8565b5b8160048111156125a3576125a26145a8565b5b036125e3576040517f08c379a00000000000000000000000000000000000000000000000000000000081526004016125da9061468f565b60405180910390fd5b600360048111156125f7576125f66145a8565b5b81600481111561260a576126096145a8565b5b0361264a576040517f08c379a000000000000000000000000000000000000000000000000000000000815260040161264190614721565b60405180910390fd5b5b50565b600061266f8473ffffffffffffffffffffffffffffffffffffffff16611e8c565b156127c8578373ffffffffffffffffffffffffffffffffffffffff1663150b7a02612698611761565b8786866040518563ffffffff1660e01b81526004016126ba9493929190614796565b6020604051808303816000875af19250505080156126f657506040513d601f19601f820116820180604052508101906126f391906147f7565b60015b612778573d8060008114612726576040519150601f19603f3d011682016040523d82523d6000602084013e61272b565b606091505b506000815103612770576040517f08c379a000000000000000000000000000000000000000000000000000000000815260040161276790614559565b60405180910390fd5b805181602001fd5b63150b7a0260e01b7bffffffffffffffffffffffffffffffffffffffffffffffffffffffff1916817bffffffffffffffffffffffffffffffffffffffffffffffffffffffff1916149150506127cd565b600190505b949350505050565b600080600090507a184f03e93ff9f4daa797ed6e38ed64bf6a1f0100000000000000008310612833577a184f03e93ff9f4daa797ed6e38ed64bf6a1f010000000000000000838161282957612828614579565b5b0492506040810190505b6d04ee2d6d415b85acef81000000008310612870576d04ee2d6d415b85acef8100000000838161286657612865614579565b5b0492506020810190505b662386f26fc10000831061289f57662386f26fc10000838161289557612894614579565b5b0492506010810190505b6305f5e10083106128c8576305f5e10083816128be576128bd614579565b5b0492506008810190505b61271083106128ed5761271083816128e3576128e2614579565b5b0492506004810190505b60648310612910576064838161290657612905614579565b5b0492506002810190505b600a831061291f576001810190505b80915050919050565b6000807f7fffffffffffffffffffffffffffffff5d576e7357a4501ddfe92f46681b20a08360001c1115612963576000600391509150612a01565b6000600187878787604051600081526020016040526040516129889493929190614833565b6020604051602081039080840390855afa1580156129aa573d6000803e3d6000fd5b505050602060405103519050600073ffffffffffffffffffffffffffffffffffffffff168173ffffffffffffffffffffffffffffffffffffffff16036129f857600060019250925050612a01565b80600092509250505b94509492505050565b6000604051905090565b600080fd5b600080fd5b60007fffffffff0000000000000000000000000000000000000000000000000000000082169050919050565b612a5381612a1e565b8114612a5e57600080fd5b50565b600081359050612a7081612a4a565b92915050565b600060208284031215612a8c57612a8b612a14565b5b6000612a9a84828501612a61565b91505092915050565b60008115159050919050565b612ab881612aa3565b82525050565b6000602082019050612ad36000830184612aaf565b92915050565b600081519050919050565b600082825260208201905092915050565b60005b83811015612b13578082015181840152602081019050612af8565b60008484015250505050565b6000601f19601f8301169050919050565b6000612b3b82612ad9565b612b458185612ae4565b9350612b55818560208601612af5565b612b5e81612b1f565b840191505092915050565b60006020820190508181036000830152612b838184612b30565b905092915050565b6000819050919050565b612b9e81612b8b565b8114612ba957600080fd5b50565b600081359050612bbb81612b95565b92915050565b600060208284031215612bd757612bd6612a14565b5b6000612be584828501612bac565b91505092915050565b600073ffffffffffffffffffffffffffffffffffffffff82169050919050565b6000612c1982612bee565b9050919050565b612c2981612c0e565b82525050565b6000602082019050612c446000830184612c20565b92915050565b612c5381612c0e565b8114612c5e57600080fd5b50565b600081359050612c7081612c4a565b92915050565b60008060408385031215612c8d57612c8c612a14565b5b6000612c9b85828601612c61565b9250506020612cac85828601612bac565b9150509250929050565b600080600060608486031215612ccf57612cce612a14565b5b6000612cdd86828701612c61565b9350506020612cee86828701612c61565b9250506040612cff86828701612bac565b9150509250925092565b60008060408385031215612d2057612d1f612a14565b5b6000612d2e85828601612bac565b9250506020612d3f85828601612c61565b9150509250929050565b600080fd5b600080fd5b600080fd5b60008083601f840112612d6e57612d6d612d49565b5b8235905067ffffffffffffffff811115612d8b57612d8a612d4e565b5b602083019150836020820283011115612da757612da6612d53565b5b9250929050565b600080600060408486031215612dc757612dc6612a14565b5b6000612dd586828701612bac565b935050602084013567ffffffffffffffff811115612df657612df5612a19565b5b612e0286828701612d58565b92509250509250925092565b600080fd5b7f4e487b7100000000000000000000000000000000000000000000000000000000600052604160045260246000fd5b612e4b82612b1f565b810181811067ffffffffffffffff82111715612e6a57612e69612e13565b5b80604052505050565b6000612e7d612a0a565b9050612e898282612e42565b919050565b600067ffffffffffffffff821115612ea957612ea8612e13565b5b612eb282612b1f565b9050602081019050919050565b82818337600083830152505050565b6000612ee1612edc84612e8e565b612e73565b905082815260208101848484011115612efd57612efc612e0e565b5b612f08848285612ebf565b509392505050565b600082601f830112612f2557612f24612d49565b5b8135612f35848260208601612ece565b91505092915050565b60008060008060808587031215612f5857612f57612a14565b5b600085013567ffffffffffffffff811115612f7657612f75612a19565b5b612f8287828801612f10565b945050602085013567ffffffffffffffff811115612fa357612fa2612a19565b5b612faf87828801612f10565b935050604085013567ffffffffffffffff811115612fd057612fcf612a19565b5b612fdc87828801612f10565b9250506060612fed87828801612c61565b91505092959194509250565b60006020828403121561300f5761300e612a14565b5b600061301d84828501612c61565b91505092915050565b61302f81612b8b565b82525050565b600060208201905061304a6000830184613026565b92915050565b6000819050919050565b61306381613050565b82525050565b600060208201905061307e600083018461305a565b92915050565b61308d81612aa3565b811461309857600080fd5b50565b6000813590506130aa81613084565b92915050565b600080604083850312156130c7576130c6612a14565b5b60006130d585828601612c61565b92505060206130e68582860161309b565b9150509250929050565b600081519050919050565b600082825260208201905092915050565b6000819050602082019050919050565b61312581612c0e565b82525050565b600081519050919050565b600082825260208201905092915050565b6000819050602082019050919050565b600082825260208201905092915050565b600061317382612ad9565b61317d8185613157565b935061318d818560208601612af5565b61319681612b1f565b840191505092915050565b600060408301600083015184820360008601526131be8282613168565b915050602083015184820360208601526131d88282613168565b9150508091505092915050565b60006131f183836131a1565b905092915050565b6000602082019050919050565b60006132118261312b565b61321b8185613136565b93508360208202850161322d85613147565b8060005b85811015613269578484038952815161324a85826131e5565b9450613255836131f9565b925060208a01995050600181019050613231565b50829750879550505050505092915050565b6000604083016000830151613293600086018261311c565b50602083015184820360208601526132ab8282613206565b9150508091505092915050565b60006132c4838361327b565b905092915050565b6000602082019050919050565b60006132e4826130f0565b6132ee81856130fb565b9350836020820285016133008561310c565b8060005b8581101561333c578484038952815161331d85826132b8565b9450613328836132cc565b925060208a01995050600181019050613304565b50829750879550505050505092915050565b6000602082019050818103600083015261336881846132d9565b905092915050565b60008083601f84011261338657613385612d49565b5b8235905067ffffffffffffffff8111156133a3576133a2612d4e565b5b6020830191508360018202830111156133bf576133be612d53565b5b9250929050565b6000806000604084860312156133df576133de612a14565b5b60006133ed86828701612bac565b935050602084013567ffffffffffffffff81111561340e5761340d612a19565b5b61341a86828701613370565b92509250509250925092565b600067ffffffffffffffff82111561344157613440612e13565b5b61344a82612b1f565b9050602081019050919050565b600061346a61346584613426565b612e73565b90508281526020810184848401111561348657613485612e0e565b5b613491848285612ebf565b509392505050565b600082601f8301126134ae576134ad612d49565b5b81356134be848260208601613457565b91505092915050565b600080600080608085870312156134e1576134e0612a14565b5b60006134ef87828801612c61565b945050602061350087828801612c61565b935050604061351187828801612bac565b925050606085013567ffffffffffffffff81111561353257613531612a19565b5b61353e87828801613499565b91505092959194509250565b6000806040838503121561356157613560612a14565b5b600061356f85828601612c61565b925050602061358085828601612c61565b9150509250929050565b7f4e487b7100000000000000000000000000000000000000000000000000000000600052602260045260246000fd5b600060028204905060018216806135d157607f821691505b6020821081036135e4576135e361358a565b5b50919050565b7f4552433732313a20617070726f76616c20746f2063757272656e74206f776e6560008201527f7200000000000000000000000000000000000000000000000000000000000000602082015250565b6000613646602183612ae4565b9150613651826135ea565b604082019050919050565b6000602082019050818103600083015261367581613639565b9050919050565b7f4552433732313a20617070726f76652063616c6c6572206973206e6f7420746f60008201527f6b656e206f776e6572206f7220617070726f76656420666f7220616c6c000000602082015250565b60006136d8603d83612ae4565b91506136e38261367c565b604082019050919050565b60006020820190508181036000830152613707816136cb565b9050919050565b7f4552433732313a2063616c6c6572206973206e6f7420746f6b656e206f776e6560008201527f72206f7220617070726f76656400000000000000000000000000000000000000602082015250565b600061376a602d83612ae4565b91506137758261370e565b604082019050919050565b600060208201905081810360008301526137998161375d565b9050919050565b7f4e6f74206f776e6572206f7220617070726f7665640000000000000000000000600082015250565b60006137d6601583612ae4565b91506137e1826137a0565b602082019050919050565b60006020820190508181036000830152613805816137c9565b9050919050565b7f546f6b656e20646f6573206e6f74206578697374000000000000000000000000600082015250565b6000613842601483612ae4565b915061384d8261380c565b602082019050919050565b6000602082019050818103600083015261387181613835565b9050919050565b7f4e487b7100000000000000000000000000000000000000000000000000000000600052601160045260246000fd5b60006138b282612b8b565b91506138bd83612b8b565b92508282039050818111156138d5576138d4613878565b5b92915050565b7f4e487b7100000000000000000000000000000000000000000000000000000000600052603260045260246000fd5b600080fd5b600080fd5b600080fd5b6000823560016040038336030381126139355761393461390a565b5b80830191505092915050565b6000808335600160200384360303811261395e5761395d61390a565b5b80840192508235915067ffffffffffffffff8211156139805761397f61390f565b5b60208301925060018202360383131561399c5761399b613914565b5b509250929050565b600082905092915050565b60008190508160005260206000209050919050565b60006020601f8301049050919050565b600082821b905092915050565b600060088302613a117fffffffffffffffffffffffffffffffffffffffffffffffffffffffffffffffff826139d4565b613a1b86836139d4565b95508019841693508086168417925050509392505050565b6000819050919050565b6000613a58613a53613a4e84612b8b565b613a33565b612b8b565b9050919050565b6000819050919050565b613a7283613a3d565b613a86613a7e82613a5f565b8484546139e1565b825550505050565b600090565b613a9b613a8e565b613aa6818484613a69565b505050565b5b81811015613aca57613abf600082613a93565b600181019050613aac565b5050565b601f821115613b0f57613ae0816139af565b613ae9846139c4565b81016020851015613af8578190505b613b0c613b04856139c4565b830182613aab565b50505b505050565b600082821c905092915050565b6000613b3260001984600802613b14565b1980831691505092915050565b6000613b4b8383613b21565b9150826002028217905092915050565b613b6583836139a4565b67ffffffffffffffff811115613b7e57613b7d612e13565b5b613b8882546135b9565b613b93828285613ace565b6000601f831160018114613bc25760008415613bb0578287013590505b613bba8582613b3f565b865550613c22565b601f198416613bd0866139af565b60005b82811015613bf857848901358255600182019150602085019450602081019050613bd3565b86831015613c155784890135613c11601f891682613b21565b8355505b6001600288020188555050505b50505050505050565b613c36838383613b5b565b505050565b6000810160008301613c4d8185613941565b613c58818386613c2b565b505050506001810160208301613c6e8185613941565b613c79818386613c2b565b505050505050565b613c8b8282613c3b565b5050565b6000613c9a82612b8b565b91507fffffffffffffffffffffffffffffffffffffffffffffffffffffffffffffffff8203613ccc57613ccb613878565b5b600182019050919050565b7f496e697469616c697a61626c653a20636f6e747261637420697320616c72656160008201527f647920696e697469616c697a6564000000000000000000000000000000000000602082015250565b6000613d33602e83612ae4565b9150613d3e82613cd7565b604082019050919050565b60006020820190508181036000830152613d6281613d26565b9050919050565b613d7282612ad9565b67ffffffffffffffff811115613d8b57613d8a612e13565b5b613d9582546135b9565b613da0828285613ace565b600060209050601f831160018114613dd35760008415613dc1578287015190505b613dcb8582613b3f565b865550613e33565b601f198416613de1866139af565b60005b82811015613e0957848901518255600182019150602085019450602081019050613de4565b86831015613e265784890151613e22601f891682613b21565b8355505b6001600288020188555050505b505050505050565b6000819050919050565b600060ff82169050919050565b6000613e6d613e68613e6384613e3b565b613a33565b613e45565b9050919050565b613e7d81613e52565b82525050565b6000602082019050613e986000830184613e74565b92915050565b7f4552433732313a20696e76616c696420746f6b656e2049440000000000000000600082015250565b6000613ed4601883612ae4565b9150613edf82613e9e565b602082019050919050565b60006020820190508181036000830152613f0381613ec7565b9050919050565b7f4552433732313a2061646472657373207a65726f206973206e6f74206120766160008201527f6c6964206f776e65720000000000000000000000000000000000000000000000602082015250565b6000613f66602983612ae4565b9150613f7182613f0a565b604082019050919050565b60006020820190508181036000830152613f9581613f59565b9050919050565b600081905092915050565b7f19457468657265756d205369676e6564204d6573736167653a0a31364765742060008201527f766572696669636174696f6e0000000000000000000000000000000000000000602082015250565b6000614003602c83613f9c565b915061400e82613fa7565b602c82019050919050565b600061402482613ff6565b9150819050919050565b7f5369676e6572206e6f742077686974656c697374656400000000000000000000600082015250565b6000614064601683612ae4565b915061406f8261402e565b602082019050919050565b6000602082019050818103600083015261409381614057565b9050919050565b60006140a582612ad9565b6140af8185613f9c565b93506140bf818560208601612af5565b80840191505092915050565b60006140d7828561409a565b91506140e3828461409a565b91508190509392505050565b7f4f776e61626c653a206e6577206f776e657220697320746865207a65726f206160008201527f6464726573730000000000000000000000000000000000000000000000000000602082015250565b600061414b602683612ae4565b9150614156826140ef565b604082019050919050565b6000602082019050818103600083015261417a8161413e565b9050919050565b7f4552433732313a207472616e736665722066726f6d20696e636f72726563742060008201527f6f776e6572000000000000000000000000000000000000000000000000000000602082015250565b60006141dd602583612ae4565b91506141e882614181565b604082019050919050565b6000602082019050818103600083015261420c816141d0565b9050919050565b7f4552433732313a207472616e7366657220746f20746865207a65726f2061646460008201527f7265737300000000000000000000000000000000000000000000000000000000602082015250565b600061426f602483612ae4565b915061427a82614213565b604082019050919050565b6000602082019050818103600083015261429e81614262565b9050919050565b7f4f776e61626c653a2063616c6c6572206973206e6f7420746865206f776e6572600082015250565b60006142db602083612ae4565b91506142e6826142a5565b602082019050919050565b6000602082019050818103600083015261430a816142ce565b9050919050565b7f4552433732313a206d696e7420746f20746865207a65726f2061646472657373600082015250565b6000614347602083612ae4565b915061435282614311565b602082019050919050565b600060208201905081810360008301526143768161433a565b9050919050565b7f4552433732313a20746f6b656e20616c7265616479206d696e74656400000000600082015250565b60006143b3601c83612ae4565b91506143be8261437d565b602082019050919050565b600060208201905081810360008301526143e2816143a6565b9050919050565b7f496e697469616c697a61626c653a20636f6e7472616374206973206e6f74206960008201527f6e697469616c697a696e67000000000000000000000000000000000000000000602082015250565b6000614445602b83612ae4565b9150614450826143e9565b604082019050919050565b6000602082019050818103600083015261447481614438565b9050919050565b7f4552433732313a20617070726f766520746f2063616c6c657200000000000000600082015250565b60006144b1601983612ae4565b91506144bc8261447b565b602082019050919050565b600060208201905081810360008301526144e0816144a4565b9050919050565b7f4552433732313a207472616e7366657220746f206e6f6e20455243373231526560008201527f63656976657220696d706c656d656e7465720000000000000000000000000000602082015250565b6000614543603283612ae4565b915061454e826144e7565b604082019050919050565b6000602082019050818103600083015261457281614536565b9050919050565b7f4e487b7100000000000000000000000000000000000000000000000000000000600052601260045260246000fd5b7f4e487b7100000000000000000000000000000000000000000000000000000000600052602160045260246000fd5b7f45434453413a20696e76616c6964207369676e61747572650000000000000000600082015250565b600061460d601883612ae4565b9150614618826145d7565b602082019050919050565b6000602082019050818103600083015261463c81614600565b9050919050565b7f45434453413a20696e76616c6964207369676e6174757265206c656e67746800600082015250565b6000614679601f83612ae4565b915061468482614643565b602082019050919050565b600060208201905081810360008301526146a88161466c565b9050919050565b7f45434453413a20696e76616c6964207369676e6174757265202773272076616c60008201527f7565000000000000000000000000000000000000000000000000000000000000602082015250565b600061470b602283612ae4565b9150614716826146af565b604082019050919050565b6000602082019050818103600083015261473a816146fe565b9050919050565b600081519050919050565b600082825260208201905092915050565b600061476882614741565b614772818561474c565b9350614782818560208601612af5565b61478b81612b1f565b840191505092915050565b60006080820190506147ab6000830187612c20565b6147b86020830186612c20565b6147c56040830185613026565b81810360608301526147d7818461475d565b905095945050505050565b6000815190506147f181612a4a565b92915050565b60006020828403121561480d5761480c612a14565b5b600061481b848285016147e2565b91505092915050565b61482d81613e45565b82525050565b6000608082019050614848600083018761305a565b6148556020830186614824565b614862604083018561305a565b61486f606083018461305a565b9594505050505056fea26469706673582212208f7a79d6435a6e13656745627842524a82224a457eb691c920a7c4998e53750a64736f6c63430008110033",
  "linkReferences": {},
  "deployedLinkReferences": {}
}